{
    "_format": "hh-sol-artifact-1",
    "contractName": "WavePortal",
    "sourceName": "contracts/WavePortal.sol",
    "abi": [
        {
            "inputs": [],
            "stateMutability": "payable",
            "type": "constructor"
        },
        {
            "anonymous": false,
            "inputs": [
                {
                    "indexed": true,
                    "internalType": "address",
                    "name": "from",
                    "type": "address"
                },
                {
                    "indexed": false,
                    "internalType": "string",
                    "name": "message",
                    "type": "string"
                },
                {
                    "indexed": false,
                    "internalType": "uint256",
                    "name": "timestamp",
                    "type": "uint256"
                }
            ],
            "name": "NewWave",
            "type": "event"
        },
        {
            "inputs": [],
            "name": "getAllWaves",
            "outputs": [
                {
                    "components": [
                        {
                            "internalType": "address",
                            "name": "waver",
                            "type": "address"
                        },
                        {
                            "internalType": "string",
                            "name": "message",
                            "type": "string"
                        },
                        {
                            "internalType": "uint256",
                            "name": "timestamp",
                            "type": "uint256"
                        }
                    ],
                    "internalType": "struct WavePortal.Wave[]",
                    "name": "",
                    "type": "tuple[]"
                }
            ],
            "stateMutability": "view",
            "type": "function"
        },
        {
            "inputs": [],
            "name": "getTotalWaves",
            "outputs": [
                {
                    "internalType": "uint256",
                    "name": "",
                    "type": "uint256"
                }
            ],
            "stateMutability": "view",
            "type": "function"
        },
        {
            "inputs": [],
            "name": "getWavesForAddress",
            "outputs": [
                {
                    "internalType": "uint256",
                    "name": "",
                    "type": "uint256"
                }
            ],
            "stateMutability": "view",
            "type": "function"
        },
        {
            "inputs": [
                {
                    "internalType": "address",
                    "name": "",
                    "type": "address"
                }
            ],
            "name": "lastWavedAt",
            "outputs": [
                {
                    "internalType": "uint256",
                    "name": "",
                    "type": "uint256"
                }
            ],
            "stateMutability": "view",
            "type": "function"
        },
        {
            "inputs": [
                {
                    "internalType": "string",
                    "name": "_message",
                    "type": "string"
                }
            ],
            "name": "wave",
            "outputs": [],
            "stateMutability": "nonpayable",
            "type": "function"
        },
        {
            "inputs": [
                {
                    "internalType": "address",
                    "name": "",
                    "type": "address"
                }
            ],
            "name": "wavesPerAddress",
            "outputs": [
                {
                    "internalType": "uint256",
                    "name": "",
                    "type": "uint256"
                }
            ],
            "stateMutability": "view",
            "type": "function"
        }
    ],
    "bytecode": "0x60806040526200004f6040518060400160405280601b81526020017f48656c6c6f2c2049276d206120736d61727420636f6e747261637400000000008152506200007760201b620007d11760201c565b606444426200005f9190620001c4565b6200006b919062000261565b60038190555062000308565b62000117816040516024016200008e919062000184565b6040516020818303038152906040527f41304fac000000000000000000000000000000000000000000000000000000007bffffffffffffffffffffffffffffffffffffffffffffffffffffffff19166020820180517bffffffffffffffffffffffffffffffffffffffffffffffffffffffff83818316178352505050506200011a60201b60201c565b50565b60008151905060006a636f6e736f6c652e6c6f679050602083016000808483855afa5050505050565b60006200015082620001a8565b6200015c8185620001b3565b93506200016e8185602086016200022b565b6200017981620002f7565b840191505092915050565b60006020820190508181036000830152620001a0818462000143565b905092915050565b600081519050919050565b600082825260208201905092915050565b6000620001d18262000221565b9150620001de8362000221565b9250827fffffffffffffffffffffffffffffffffffffffffffffffffffffffffffffffff0382111562000216576200021562000299565b5b828201905092915050565b6000819050919050565b60005b838110156200024b5780820151818401526020810190506200022e565b838111156200025b576000848401525b50505050565b60006200026e8262000221565b91506200027b8362000221565b9250826200028e576200028d620002c8565b5b828206905092915050565b7f4e487b7100000000000000000000000000000000000000000000000000000000600052601160045260246000fd5b7f4e487b7100000000000000000000000000000000000000000000000000000000600052601260045260246000fd5b6000601f19601f8301169050919050565b6113d580620003186000396000f3fe608060405234801561001057600080fd5b50600436106100625760003560e01c8063449d46c014610067578063665359a5146100835780639a2cdc08146100a1578063a42a4663146100bf578063bd43a908146100ef578063ee51c52a1461010d575b600080fd5b610081600480360381019061007c9190610bb3565b61013d565b005b61008b61053f565b6040516100989190610f5e565b60405180910390f35b6100a9610605565b6040516100b69190610f5e565b60405180910390f35b6100d960048036038101906100d49190610b8a565b610650565b6040516100e69190610f5e565b60405180910390f35b6100f7610668565b6040516101049190610e1c565b60405180910390f35b61012760048036038101906101229190610b8a565b6107b9565b6040516101349190610f5e565b60405180910390f35b42610384600260003373ffffffffffffffffffffffffffffffffffffffff1673ffffffffffffffffffffffffffffffffffffffff1681526020019081526020016000205461018b9190611040565b106101cb576040517f08c379a00000000000000000000000000000000000000000000000000000000081526004016101c290610f1e565b60405180910390fd5b42600260003373ffffffffffffffffffffffffffffffffffffffff1673ffffffffffffffffffffffffffffffffffffffff1681526020019081526020016000208190555060008081548092919061022190611177565b9190505550600160003373ffffffffffffffffffffffffffffffffffffffff1673ffffffffffffffffffffffffffffffffffffffff168152602001908152602001600020600081548092919061027690611177565b9190505550600460405180606001604052803373ffffffffffffffffffffffffffffffffffffffff16815260200183815260200142815250908060018154018082558091505060019003906000526020600020906003020160009091909190915060008201518160000160006101000a81548173ffffffffffffffffffffffffffffffffffffffff021916908373ffffffffffffffffffffffffffffffffffffffff160217905550602082015181600101908051906020019061033a929190610a6a565b50604082015181600201555050606442446103559190611040565b61035f91906111c0565b6003819055506103a66040518060400160405280601681526020017f52616e646f6d20232067656e6572617465643a2025640000000000000000000081525060035461086a565b6032600354116104ad576000655af3107a40009050478111156103fe576040517f08c379a00000000000000000000000000000000000000000000000000000000081526004016103f590610efe565b60405180910390fd5b60003373ffffffffffffffffffffffffffffffffffffffff168260405161042490610e07565b60006040518083038185875af1925050503d8060008114610461576040519150601f19603f3d011682016040523d82523d6000602084013e610466565b606091505b50509050806104aa576040517f08c379a00000000000000000000000000000000000000000000000000000000081526004016104a190610f3e565b60405180910390fd5b50505b3373ffffffffffffffffffffffffffffffffffffffff167f6728ef66814a55b797863bf8ffcd954b19cbca4ed4f0e6cf04c980705fd82c3682426040516104f5929190610ece565b60405180910390a261053c6040518060400160405280600c81526020017f257320686173207761766564000000000000000000000000000000000000000081525033610906565b50565b60006105c06040518060400160405280601b81526020017f546865206164647265737320257320686173202564207761766573000000000081525033600160003373ffffffffffffffffffffffffffffffffffffffff1673ffffffffffffffffffffffffffffffffffffffff168152602001908152602001600020546109a2565b600160003373ffffffffffffffffffffffffffffffffffffffff1673ffffffffffffffffffffffffffffffffffffffff16815260200190815260200160002054905090565b60006106486040518060400160405280601681526020017f5765206861766520257320746f74616c2077617665730000000000000000000081525060005461086a565b600054905090565b60026020528060005260406000206000915090505481565b60606004805480602002602001604051908101604052809291908181526020016000905b828210156107b057838290600052602060002090600302016040518060600160405290816000820160009054906101000a900473ffffffffffffffffffffffffffffffffffffffff1673ffffffffffffffffffffffffffffffffffffffff1673ffffffffffffffffffffffffffffffffffffffff16815260200160018201805461071590611114565b80601f016020809104026020016040519081016040528092919081815260200182805461074190611114565b801561078e5780601f106107635761010080835404028352916020019161078e565b820191906000526020600020905b81548152906001019060200180831161077157829003601f168201915b505050505081526020016002820154815250508152602001906001019061068c565b50505050905090565b60016020528060005260406000206000915090505481565b610867816040516024016107e59190610e3e565b6040516020818303038152906040527f41304fac000000000000000000000000000000000000000000000000000000007bffffffffffffffffffffffffffffffffffffffffffffffffffffffff19166020820180517bffffffffffffffffffffffffffffffffffffffffffffffffffffffff8381831617835250505050610a41565b50565b6109028282604051602401610880929190610ece565b6040516020818303038152906040527f9710a9d0000000000000000000000000000000000000000000000000000000007bffffffffffffffffffffffffffffffffffffffffffffffffffffffff19166020820180517bffffffffffffffffffffffffffffffffffffffffffffffffffffffff8381831617835250505050610a41565b5050565b61099e828260405160240161091c929190610e60565b6040516020818303038152906040527f319af333000000000000000000000000000000000000000000000000000000007bffffffffffffffffffffffffffffffffffffffffffffffffffffffff19166020820180517bffffffffffffffffffffffffffffffffffffffffffffffffffffffff8381831617835250505050610a41565b5050565b610a3c8383836040516024016109ba93929190610e90565b6040516020818303038152906040527f07c81217000000000000000000000000000000000000000000000000000000007bffffffffffffffffffffffffffffffffffffffffffffffffffffffff19166020820180517bffffffffffffffffffffffffffffffffffffffffffffffffffffffff8381831617835250505050610a41565b505050565b60008151905060006a636f6e736f6c652e6c6f679050602083016000808483855afa5050505050565b828054610a7690611114565b90600052602060002090601f016020900481019282610a985760008555610adf565b82601f10610ab157805160ff1916838001178555610adf565b82800160010185558215610adf579182015b82811115610ade578251825591602001919060010190610ac3565b5b509050610aec9190610af0565b5090565b5b80821115610b09576000816000905550600101610af1565b5090565b6000610b20610b1b84610f9e565b610f79565b905082815260208101848484011115610b3857600080fd5b610b438482856110d2565b509392505050565b600081359050610b5a81611388565b92915050565b600082601f830112610b7157600080fd5b8135610b81848260208601610b0d565b91505092915050565b600060208284031215610b9c57600080fd5b6000610baa84828501610b4b565b91505092915050565b600060208284031215610bc557600080fd5b600082013567ffffffffffffffff811115610bdf57600080fd5b610beb84828501610b60565b91505092915050565b6000610c008383610d99565b905092915050565b610c1181611096565b82525050565b610c2081611096565b82525050565b6000610c3182610fdf565b610c3b8185611002565b935083602082028501610c4d85610fcf565b8060005b85811015610c895784840389528151610c6a8582610bf4565b9450610c7583610ff5565b925060208a01995050600181019050610c51565b50829750879550505050505092915050565b6000610ca682610fea565b610cb0818561101e565b9350610cc08185602086016110e1565b610cc9816112ad565b840191505092915050565b6000610cdf82610fea565b610ce9818561102f565b9350610cf98185602086016110e1565b610d02816112ad565b840191505092915050565b6000610d1a60378361102f565b9150610d25826112be565b604082019050919050565b6000610d3d601d8361102f565b9150610d488261130d565b602082019050919050565b6000610d6060268361102f565b9150610d6b82611336565b604082019050919050565b6000610d83600083611013565b9150610d8e82611385565b600082019050919050565b6000606083016000830151610db16000860182610c08565b5060208301518482036020860152610dc98282610c9b565b9150506040830151610dde6040860182610de9565b508091505092915050565b610df2816110c8565b82525050565b610e01816110c8565b82525050565b6000610e1282610d76565b9150819050919050565b60006020820190508181036000830152610e368184610c26565b905092915050565b60006020820190508181036000830152610e588184610cd4565b905092915050565b60006040820190508181036000830152610e7a8185610cd4565b9050610e896020830184610c17565b9392505050565b60006060820190508181036000830152610eaa8186610cd4565b9050610eb96020830185610c17565b610ec66040830184610df8565b949350505050565b60006040820190508181036000830152610ee88185610cd4565b9050610ef76020830184610df8565b9392505050565b60006020820190508181036000830152610f1781610d0d565b9050919050565b60006020820190508181036000830152610f3781610d30565b9050919050565b60006020820190508181036000830152610f5781610d53565b9050919050565b6000602082019050610f736000830184610df8565b92915050565b6000610f83610f94565b9050610f8f8282611146565b919050565b6000604051905090565b600067ffffffffffffffff821115610fb957610fb861127e565b5b610fc2826112ad565b9050602081019050919050565b6000819050602082019050919050565b600081519050919050565b600081519050919050565b6000602082019050919050565b600082825260208201905092915050565b600081905092915050565b600082825260208201905092915050565b600082825260208201905092915050565b600061104b826110c8565b9150611056836110c8565b9250827fffffffffffffffffffffffffffffffffffffffffffffffffffffffffffffffff0382111561108b5761108a6111f1565b5b828201905092915050565b60006110a1826110a8565b9050919050565b600073ffffffffffffffffffffffffffffffffffffffff82169050919050565b6000819050919050565b82818337600083830152505050565b60005b838110156110ff5780820151818401526020810190506110e4565b8381111561110e576000848401525b50505050565b6000600282049050600182168061112c57607f821691505b602082108114156111405761113f61124f565b5b50919050565b61114f826112ad565b810181811067ffffffffffffffff8211171561116e5761116d61127e565b5b80604052505050565b6000611182826110c8565b91507fffffffffffffffffffffffffffffffffffffffffffffffffffffffffffffffff8214156111b5576111b46111f1565b5b600182019050919050565b60006111cb826110c8565b91506111d6836110c8565b9250826111e6576111e5611220565b5b828206905092915050565b7f4e487b7100000000000000000000000000000000000000000000000000000000600052601160045260246000fd5b7f4e487b7100000000000000000000000000000000000000000000000000000000600052601260045260246000fd5b7f4e487b7100000000000000000000000000000000000000000000000000000000600052602260045260246000fd5b7f4e487b7100000000000000000000000000000000000000000000000000000000600052604160045260246000fd5b6000601f19601f8301169050919050565b7f417474656d70696e6720746f207769746864726177206d6f7265206d6f6e657960008201527f207468616e207468697320636f6e747261637420686173000000000000000000602082015250565b7f20576169742031356d206265666f726520776176696e6720616761696e000000600082015250565b7f4661696c656420746f207769746864726177206d6f6e65792066726f6d20636f60008201527f6e74726163740000000000000000000000000000000000000000000000000000602082015250565b50565b61139181611096565b811461139c57600080fd5b5056fea2646970667358221220d500cc18c05d9dbeb649b9985650071ab9eb5e6dd10c4cec0ba33196c16d6c6d64736f6c63430008040033",
    "linkReferences": {},
    "deployedLinkReferences": {}
}